:1000000012C02CC02BC02AC029C028C027C026C0BF
:1000100025C024C023C008C221C020C01FC01EC0EC
:100020001DC01CC01BC011241FBECFE5D4E0DEBF25
:10003000CDBF11E0A0E6B0E0E8EEFAE002C0059026
:100040000D92A031B107D9F711E0A0E1B1E001C0F4
:100050001D92A331B107E1F753D044C5D1CF81B38D
:10006000806F81BB0895949A979820E030E0482FE4
:1000700050E061E09598CA01022E02C095958795DF
:100080000A94E2F780FF02C0969801C0969A862FE4
:100090008A95F1F7959A862F8A95F1F72F5F3F4F52
:1000A0002830310539F79598979A81E08A95F1F7CC
:1000B00097980895FC01808190E0062E02C09595E6
:1000C00087950A94E2F780FF19C020E23EE4C90157
:1000D0000197F1F7C9010197F1F7808190E002C023
:1000E000959587956A95E2F780FF08C0C901019749
:1000F000F1F7C9010197F1F781E0089580E00895D3
:100100008F929F92BF92CF92DF92EF92FF920F93C6
:100110001F93DF93CF93CDB7DEB7C055D0400FB656
:10012000F894DEBF0FBECDBF81B3806F81BB8FEF70
:100130009ADF84B38F7C84BB85B3806385BBB99A17
:1001400082E88FBD8BE18EBD8FEF90E097BD86BDBD
:100150001BBC1ABCB7D188E893E124E630E0F90172
:100160003197F1F70197D9F788E893E124E630E079
:10017000F9013197F1F70197D9F788E893E124E67F
:1001800030E0F9013197F1F70197D9F788E893E169
:1001900024E630E0F9013197F1F70197D9F780E6CD
:1001A00090E086D18AEA5FDF88E893E124E630E0D8
:1001B000F9013197F1F70197D9F78CE690E078D102
:1001C00088E893E124E630E0F9013197F1F70197EF
:1001D000D9F780EF48DF88E893E124E630E0F901C1
:1001E0003197F1F70197D9F77894BB246E01089401
:1001F000C11CD11C87E7882E80E0982E83E390E015
:1002000065E058DF882311F0B39407C083E390E0E2
:1002100064E050DF8823E1F0BA9400D000D000D031
:10022000EDB7FEB73196ADB7BEB71296DC92CE925F
:10023000119793828282B48215828ED18DB79EB738
:1002400006960FB6F8949EBF0FBE8DBFC60130D183
:10025000F89441D18C01009709F44BC0C601B80154
:1002600043E050E062D1C60143D17C010D5F1F4FD6
:10027000C601B80140E550E058D1C60139D19EE62B
:10028000E916F104B9F0AFE6EA16F1042CF4B4E68D
:10029000EB16F10471F50BC090E9E91691E0F9064F
:1002A00061F0A1E9EA16A1E0FA0619F507C08EE7A8
:1002B00090E01EC08AEB90E01BC0B82E00D000D0AA
:1002C00000D0EDB7FEB73196ADB7BEB71296DC924F
:1002D000CE92119793828282B48215823DD18DB7DE
:1002E0009EB706960FB6F8949EBF0FBE8DBFC6018F
:1002F000DFD078948B2DB7DE8B2D90E09BBD8ABD2F
:100300007DCFC59A8AE18A95F1F7C598089598B38B
:10031000907F98BB28B3982F92959F70922B98BB93
:10032000C59A2AE1922F9A95F1F7C59898B3907FD4
:1003300098BB98B38F70982B98BBC59A2A95F1F704
:10034000C59884E68A95F1F70895C49AE0DF089588
:10035000C498DDDF089581E0FBDF88E99AE3019727
:10036000F1F7089582E0F4DF88E99AE30197F1F765
:100370000895613049F0613028F0623039F063301F
:1003800049F406C0805805C0805403C0805701C09E
:100390008053DEDF0895CF93DF93EC0102C0D5DFF9
:1003A000219688818823D9F7DF91CF91089587B36B
:1003B0008F6387BB80E194EA0197F1F788B3807F70
:1003C00088BB88B3836088BBC498C59A2AE1822F12
:1003D0008A95F1F7C59888E893E10197F1F7C59AF6
:1003E000822F8A95F1F7C59888EE93E0FC0131974A
:1003F000F1F7C59A322F3A95F1F7C5980197F1F7C1
:1004000088B3807F88BBC19AC59A2A95F1F7C598B1
:1004100088EB9BE00197F1F78CE29ADF8CE098DFA4
:1004200086E096DF98DF08951F920F920FB60F9225
:1004300011248F939F93EF93FF939CB180911001B0
:100440008823F9F49A3079F09D3069F08091120197
:100450008F3448F4E82FF0E0E054FF4F90838F5F33
:10046000809312010EC080911201E82FF0E0E05459
:10047000FF4F1082809311011092120181E080934E
:100480001001FF91EF919F918F910F900FBE0F90F0
:100490001F9018955D9BFECF8CB90895FC0104C098
:1004A0005D9BFECF8CB9319680818823C9F7089572
:1004B000F5DF5D9BFECF8AE08CB95D9BFECF8DE0C2
:1004C0008CB9089510BC89E189B986E880BD8AB1EC
:1004D00088698AB9089580911001882319F420E071
:1004E00030E004C01092100120EC30E0C901089502
:1004F000FC0188279927E89421912032E9F32930DB
:1005000010F02E30C8F32B3239F02D3231F46894CC
:1005100003C01AD0820F911D219120532A30C8F3B5
:100520001EF4909581959F4F0895FB01DC01415089
:10053000504048F001900D920020C9F701C01D9273
:1005400041505040E0F708957AE0979F902D879FA3
:10055000802D910D11240895AEE0B0E0E1EBF2E0C2
:1005600098C20D891E8986E08C831A8309838FEFD8
:100570009FE79E838D839E01275E3F4FCE010196AC
:100580006F89788DA90109D02F813885020F131F3B
:10059000F80110822E96E4E098C2ABE0B0E0E2ED04
:1005A000F2E069C23C012B015A01FC01178216825C
:1005B000838181FD03C06FEF7FEFB9C19AE0892E7F
:1005C0001E010894211C311CF3012381F20123FD3B
:1005D000859123FF81912F01882309F4A5C18532DC
:1005E00039F423FD859123FF81912F01853221F478
:1005F00090E0B301B6D1E8CF982FFF24EE249924E0
:10060000FFE1FF15D0F09B3269F09C3228F4903264
:1006100059F0933291F40EC09D3249F0903369F451
:1006200041E024C052E0F52A84E0F82A28C098E08E
:10063000F92A25C0E0E1FE2A22C0F7FC29C0892F53
:1006400080538A3070F4F6FE05C0989C902C1124DB
:10065000980E15C0E89CE02C1124E80EF0E2FF2A69
:100660000EC09E3229F4F6FC5FC140E4F42A07C0B4
:100670009C3619F450E8F52A02C0983649F4F20184
:1006800023FD959123FF91912F01992309F0B8CF74
:10069000892F8554833018F08052833038F444E039
:1006A00050E0A40EB51E5FE359830FC0933631F0BE
:1006B000933779F0933509F052C01FC0F50180815E
:1006C000898342E050E0A40EB51E610101E010E014
:1006D00011C0F501C080D180F6FC03C06FEF7FEF41
:1006E00002C0692D70E042E050E0A40EB51EC601C4
:1006F0002DD18C015FE7F52213C0F501C080D180B8
:10070000F6FC03C06FEF7FEF02C0692D70E042E09E
:1007100050E0A40EB51EC6010ED18C0150E8F52A9A
:10072000F3FE06C018C080E290E0B3011AD1EA944B
:100730008E2D90E008171907B0F30DC0F601F7FCF5
:100740008591F7FE81916F0190E0B3010AD1E1102C
:10075000EA94015010400115110581F7E2C094366A
:1007600011F0993661F5F7FE08C0F501208131815D
:100770004281538184E090E00AC0F501808191813B
:100780009C01442737FD4095542F82E090E0A80E4D
:10079000B91E9FE6F92257FF09C050954095309544
:1007A00021953F4F4F4F5F4FE0E8FE2ACA01B90144
:1007B000A1012AE030E001D1D82ED2183FC09537F0
:1007C00029F41F2D1F7E2AE030E01DC01F2D197F48
:1007D0009F3661F0903720F4983509F0A5C00FC01E
:1007E000903739F0983709F09FC004C028E030E016
:1007F0000AC0106114FD146020E130E004C014FD53
:10080000166020E132E017FF08C0F50160817181B8
:100810008281938144E050E008C0F501808191819C
:10082000BC0180E090E042E050E0A40EB51EA101C2
:10083000C4D0D82ED2188FE7F82EF122F6FE0BC0C6
:100840005EEFF522D91438F4F4FE07C0F2FC05C0BF
:100850008FEEF82202C01D2D01C0192DF4FE0DC02F
:10086000FE01ED0DF11D8081803319F499EEF9221E
:1008700008C01F5FF2FE05C003C08F2D867809F007
:100880001F5F0F2DF3FC13C0F0FE0EC01E1510F0FD
:100890009D2C0AC09D2C9E0C911A1E2D05C080E235
:1008A00090E0B3015ED01F5F1E15C8F304C01E1593
:1008B00010F4E11A01C0EE2404FF0EC080E390E0C2
:1008C000B3014FD002FF1BC001FD03C088E790E0D9
:1008D0000EC088E590E00BC0802F867881F001FF84
:1008E00002C08BE201C080E2F7FC8DE290E0B30130
:1008F00038D005C080E390E0B30133D09A94D91486
:10090000C8F3DA94F101ED0DF11D808190E0B3019F
:1009100028D0DD20B1F705C080E290E0B30121D0FE
:10092000EA94EE20C9F750CEF30166817781CB01BE
:100930002B96E2E1BCC0FC010590615070400110B3
:10094000D8F7809590958E0F9F1F0895FC016150F8
:10095000704001900110D8F7809590958E0F9F1FE1
:1009600008950F931F93CF93DF938C01EB018B813D
:1009700081FF1BC082FF0DC02E813F818C819D8134
:100980002817390764F4E881F9810193F983E88332
:1009900006C0E885F985802F0995892B31F48E8171
:1009A0009F8101969F838E8302C00FEF1FEFC801C6
:1009B000DF91CF911F910F910895FA01AA27283056
:1009C00051F1203181F1E8946F936E7F6E5F7F4F1C
:1009D0008F4F9F4FAF4FB1E03ED0B4E03CD0670F98
:1009E000781F891F9A1FA11D680F791F8A1F911DEB
:1009F000A11D6A0F711D811D911DA11D20D009F43B
:100A000068943F912AE0269F11243019305D31937C
:100A1000DEF6CF010895462F4770405D4193B3E065
:100A20000FD0C9F7F6CF462F4F70405D4A3318F00C
:100A3000495D31FD4052419302D0A9F7EACFB4E0BD
:100A4000A6959795879577956795BA95C9F7009775
:100A50006105710508959B01AC010A2E0694579516
:100A6000479537952795BA95C9F7620F731F841F6D
:100A7000951FA01D08952F923F924F925F926F9203
:100A80007F928F929F92AF92BF92CF92DF92EF921E
:100A9000FF920F931F93CF93DF93CDB7DEB7CA1B9F
:100AA000DB0B0FB6F894DEBF0FBECDBF09942A88CA
:100AB000398848885F846E847D848C849B84AA8472
:100AC000B984C884DF80EE80FD800C811B81AA81FF
:100AD000B981CE0FD11D0FB6F894DEBF0FBECDBFCA
:080AE000ED010895F894FFCF29
:100AE80041542B4E414D45627470740041542B5053
:100AF800494E3133333700343031202564003130EA
:100B0800302050616E747920436F6E74726F6C6C14
:100B180065722056657273696F6E20302E302E31E3
:100B2800202863292032303131204D61747468697E
:100B380061732048616E6E69670031313020310081
:100B4800000000000000000000000000000000009D
:100B5800000000000000000000000000000000008D
:100B6800000000000000000000000000000000007D
:100B7800000000000000000000000000000000006D
:100B8800000000000000000000000000000000005D
:00000001FF
