:1000000018C032C031C030C02FC02EC02DC02CC08F
:100010002BC02AC029C054C027C026C025C024C078
:1000200023C022C021C06364696E6F7073757858F5
:100030005B0011241FBECFE5D4E0DEBFCDBF11E0D1
:10004000A0E6B0E0ECEAF0E102C005900D92AA3320
:10005000B107D9F711E0AAE3B1E001C01D92AD33B9
:10006000B107E1F7AFD020C8CBCF81B3806F81BBA0
:100070000895949A979820E030E0482F50E061E08E
:100080009598CA01022E02C0959587950A94E2F7C9
:1000900080FF02C0969801C0969A862F8A95F1F744
:1000A000959A862F8A95F1F72F5F3F4F28303105BB
:1000B00039F79598979A81E08A95F1F7979808957E
:1000C0001F920F920FB60F9211248F939F93EF936D
:1000D000FF939CB180913A018823F9F49A3079F02A
:1000E0009D3069F080913C018F3448F4E82FF0E0B6
:1000F000E056FF4F90838F5F80933C010EC080914C
:100100003C01E82FF0E0E056FF4F108280933B0166
:1001100010923C0181E080933A01FF91EF919F9111
:100120008F910F900FBE0F901F9018955D9BFECF83
:100130008CB90895FC0104C05D9BFECF8CB931964B
:1001400080818823C9F70895F5DF5D9BFECF8AE0A3
:100150008CB95D9BFECF8DE08CB9089510BC89E110
:1001600089B986E880BD8AB188698AB908955F9B9C
:10017000FECF8CB10895582F292F5F9BFECF4CB135
:10018000852F922F9C01F90170E06150704005C0ED
:1001900040835F9BFECF31964CB18E2F851B4A303A
:1001A00021F090E0861797079CF31082089582E073
:1001B00087BB82EC8FBD89E18EBD8FEF90E097BD4C
:1001C00086BD08952F923F924F925F926F927F92D9
:1001D0008F929F92AF92BF92CF92DF92EF92FF9257
:1001E0000F931F93DF93CF93CDB7DEB7C355D040A6
:1001F0000FB6F894DEBF0FBECDBF1A821982E0EFB2
:10020000F0E001900020E9F73197E05FF04064965C
:10021000EFAF64972F2E21D1F4D080E061E0FFD0C2
:1002200080E690E00ED110BC89E189B986E880BDF6
:100230008AB188698AB981B3806F81BB8CEC19DF80
:100240008FEF84BB88E893E124E630E0F901319731
:10025000F1F70197D9F788E893E124E630E0F90156
:100260003197F1F70197D9F788E893E124E630E078
:10027000F9013197F1F70197D9F788E893E124E67E
:1002800030E0F9013197F1F70197D9F78CE690E06A
:100290005BDF8AEAEEDE88E893E124E630E0F901EC
:1002A0003197F1F70197D9F78AE790E04DDF88E8B9
:1002B00093E124E630E0F9013197F1F70197D9F79E
:1002C00080EFD7DE88E893E124E630E0F90131974A
:1002D000F1F70197D9F7789400E010E053E0C52ECC
:1002E000D12CCC0EDD1E40E5342E35E8432E30E017
:1002F000532E20EAE22E20E0F22E94E9692E90E0BF
:10030000792E4E010894811C911C84E6A82EB12CF4
:1003100080913A018823B1F1F894D601E32D1D9222
:10032000EA95E9F700D000D000D0EDB7FEB73196DE
:10033000ADB7BEB71296DC92CE921197538242822D
:10034000F582E482EED0EDB7FEB73196ADB7BEB719
:100350001296FC92EE921197738262829582848249
:1003600001D1EDB7FEB736960FB6F894FEBF0FBEBB
:10037000EDBF87E990E0E8DE10923A018AE990E06B
:10038000D9DE789484E893E0F5013197F1F701978D
:10039000D9F7C80164966FAD6497722D9BD0FC01AC
:1003A000E051FF4F808165DE0F5F1F4FB1CFC59ACF
:1003B0008AE18A95F1F7C598089598B3907F98BB24
:1003C00028B3982F92959F70922B98BBC59A2AE1DB
:1003D000922F9A95F1F7C59898B3907F98BB98B3F0
:1003E0008F70982B98BBC59A2A95F1F7C59884E62B
:1003F0008A95F1F70895C49AE0DF0895C498DDDF87
:10040000089581E0FBDF88E99AE30197F1F7089509
:1004100082E0F4DF88E99AE30197F1F7089561300B
:1004200049F0613028F0623039F0633049F406C099
:10043000805805C0805403C0805701C08053DEDF60
:100440000895CF93DF93EC0102C0D5DF2196888118
:100450008823D9F7DF91CF91089587B38F6387BB46
:1004600080E194EA0197F1F788B3807F88BB88B375
:10047000836088BBC498C59A2AE1822F8A95F1F7D8
:10048000C59888E893E10197F1F7C59A822F8A957C
:10049000F1F7C59888EE93E0FC013197F1F7C59A22
:1004A000322F3A95F1F7C5980197F1F788B3807F1D
:1004B00088BBC19AC59A2A95F1F7C59888EB9BE04D
:1004C0000197F1F78CE29ADF8CE098DF86E096DF07
:1004D00098DF089597FB092E07260AD077FD04D0F0
:1004E0000CD006D000201AF4709561957F4F0895C6
:1004F000F6F7909581959F4F0895AA1BBB1B51E17C
:1005000007C0AA1FBB1FA617B70710F0A61BB70B83
:10051000881F991F5A95A9F780959095BC01CD0128
:100520000895AEE0B0E0E6E9F2E095C50D891E89D8
:1005300086E08C831A8309838FEF9FE79E838D83E8
:100540009E01275E3F4FCE0101966F89788DA901EC
:1005500020D02F813885020F131FF80110822E96AC
:10056000E4E095C5AEE0B0E0E7EBF2E076C585E00B
:100570008C838B899C899A8389839E01295E3F4F56
:10058000CE0101966D897E89A90144D32E96E2E0C1
:1005900080C5ABE0B0E0EEECF2E04FC53C012B01D2
:1005A0005A01FC0117821682838181FD03C06FEF1F
:1005B0007FEFB9C19AE0892E1E010894211C311CDD
:1005C000F3012381F20123FD859123FF81912F0106
:1005D000882309F4A5C1853239F423FD859123FFD1
:1005E00081912F01853221F490E0B3017FD4E8CFCF
:1005F000982FFF24EE249924FFE1FF15D0F09B32C1
:1006000069F09C3228F4903259F0933291F40EC084
:100610009D3249F0903369F441E024C052E0F52A5C
:1006200084E0F82A28C098E0F92A25C0E0E1FE2AF3
:1006300022C0F7FC29C0892F80538A3070F4F6FE5F
:1006400005C0989C902C1124980E15C0E89CE02CB5
:100650001124E80EF0E2FF2A0EC09E3229F4F6FCC7
:100660005FC140E4F42A07C09C3619F450E8F52A2B
:1006700002C0983649F4F20123FD959123FF919130
:100680002F01992309F0B8CF892F8554833018F0B2
:100690008052833038F444E050E0A40EB51E5FE38E
:1006A00059830FC0933631F0933779F0933509F0C1
:1006B00052C01FC0F5018081898342E050E0A40E42
:1006C000B51E610101E010E011C0F501C080D180CC
:1006D000F6FC03C06FEF7FEF02C0692D70E042E0CF
:1006E00050E0A40EB51EC601B4D38C015FE7F5221D
:1006F00013C0F501C080D180F6FC03C06FEF7FEF1F
:1007000002C0692D70E042E050E0A40EB51EC601A3
:1007100095D38C0150E8F52AF3FE06C018C080E29C
:1007200090E0B301E3D3EA948E2D90E00817190707
:10073000B0F30DC0F601F7FC8591F7FE81916F01D2
:1007400090E0B301D3D3E110EA94015010400115B9
:10075000110581F7E2C0943611F0993661F5F7FE84
:1007600008C0F501208131814281538184E090E00D
:100770000AC0F501808191819C01442737FD409595
:10078000542F82E090E0A80EB91E9FE6F92257FF91
:1007900009C050954095309521953F4F4F4F5F4F81
:1007A000E0E8FE2ACA01B901A1012AE030E0E4D361
:1007B000D82ED2183FC0953729F41F2D1F7E2AE06E
:1007C00030E01DC01F2D197F9F3661F0903720F457
:1007D000983509F0A5C00FC0903739F0983709F067
:1007E0009FC004C028E030E00AC0106114FD14600E
:1007F00020E130E004C014FD166020E132E017FF74
:1008000008C0F501608171818281938144E050E0EC
:1008100008C0F50180819181BC0180E090E042E058
:1008200050E0A40EB51EA101A7D3D82ED2188FE791
:10083000F82EF122F6FE0BC05EEFF522D91438F443
:10084000F4FE07C0F2FC05C08FEEF82202C01D2D99
:1008500001C0192DF4FE0DC0FE01ED0DF11D8081CA
:10086000803319F499EEF92208C01F5FF2FE05C02B
:1008700003C08F2D867809F01F5F0F2DF3FC13C086
:10088000F0FE0EC01E1510F09D2C0AC09D2C9E0C73
:10089000911A1E2D05C080E290E0B30127D31F5F9F
:1008A0001E15C8F304C01E1510F4E11A01C0EE2491
:1008B00004FF0EC080E390E0B30118D302FF1BC019
:1008C00001FD03C088E790E00EC088E590E00BC012
:1008D000802F867881F001FF02C08BE201C080E2A8
:1008E000F7FC8DE290E0B30101D305C080E390E016
:1008F000B301FCD29A94D914C8F3DA94F101ED0D46
:10090000F11D808190E0B301F1D2DD20B1F705C087
:1009100080E290E0B301EAD2EA94EE20C9F750CE2B
:10092000F30166817781CB012B96E2E1A2C3FC0142
:1009300020FD08C023FD05C022FF02C0738362832F
:10094000518340830895EF92FF920F931F9344FFCA
:1009500002C033E011C046FF02C034E00DC0DB012D
:10096000FC01AA0FBB1FEE1FFF1F1094D1F76A0FE7
:100970007B1F8E1F9F1F31E0660F771F881F991FF7
:100980003150D1F77B018C01E20EF11C011D111DCC
:10099000A8019701B701CA011F910F91FF90EF9035
:1009A00008950F931F93CF93DF938C01C8015CD2FE
:1009B000EC0197FD06C02FD2892BC1F7CE01B801FB
:1009C000C1D2CE01DF91CF911F910F910895A0E088
:1009D000B0E0ECEEF4E039C3EC01C62E5A01122F60
:1009E00043D2AC018B3219F08D3249F41068CA94AD
:1009F00009F466C0CE0138D2AC0197FD61C06DEF3D
:100A0000D62ED1228D2D8073F1F44033E1F4CA94B7
:100A100009F442C0CE0128D2AC0197FD3DC082E06E
:100A2000D82A483711F0483551F480E4D82ACA94BE
:100A300099F1CE0119D2AC0199232CF42DC0D6FC2A
:100A400002C080E1D82AEE24FF248701242F2053FE
:100A5000283080F0D4FC09C02A3060F0D6FE05C0F2
:100A60002F7D822F8151863020F0CA01BE016AD2CB
:100A700010C02750C801B7014D2D65DF7B018C01E7
:100A800082E0D82ACA9459F0CE01EED1AC0197FF8A
:100A9000DDCFD1FC04C014C0EE24FF248701D7FEB3
:100AA00008C010950095F094E094E11CF11C011D24
:100AB000111DC501B801A7012D2D39DF81E001C04D
:100AC00080E0CDB7DEB7EAE0DCC2A0E2B0E0EAE663
:100AD000F5E0B7C26C01A62E8A017901FE013196BC
:100AE00080E2DF011D928A95E9F770E030E060E076
:100AF00040E050E04F01A1E0B0E0F6018381F70152
:100B000083FD259183FF21917F01222309F47CC07D
:100B10002E3519F44115510569F1872F90E084179E
:100B2000950744F42D3551F12D3221F4332329F466
:100B300031E021C0332309F4622F322F832F8695B1
:100B400086958695F401E80FF11D832F87703D018E
:100B500002C0660C771C8A95E2F720812629208343
:100B6000361711F430E007C0361710F43F5FE6CFB8
:100B70003150E4CF71E04F5F5F4FBFCF332319F0A7
:100B80008E8180628E83772359F0FE0131969E011B
:100B90002F5D3F4F808180958193E217F307D1F756
:100BA000BB24B3944E010894811C911CC6015CD1F6
:100BB000AC0197FD21C0869586958695F401E80FD6
:100BC000F11D808190E09A012770307002C09595E8
:100BD00087952A95E2F780FD04C0CA01B601B2D11B
:100BE0000BC00115110519F0D8014D938D01AA9480
:100BF000BB24AA20D9F602C0BB2031F4011511058F
:100C000029F0F801108202C0EE24FF24C701A0964B
:100C1000EEE033C2A0E0B0E0EFE0F6E012C25C012B
:100C20006B013A01FC01178216828824DCC0812FF7
:100C300090E0F1D0892B19F0C501B3DED4C0153294
:100C400049F4F601F3FC6591F3FE61916F016532A1
:100C500059F415E2C50108D197FDD1C0181709F460
:100C6000C2C0B5016FD1D0C06A3219F0162F00E0B2
:100C700006C0F3FC1591F3FE11916F0101E0992478
:100C80000EC00260692D70E080E090E040E25BDE23
:100C9000962EF601F3FC1591F3FE11916F01212FB1
:100CA00020532A3070F301FD03C099249A9403C0A5
:100CB000992009F4A9C0183621F01C3699F4F601E0
:100CC0000BC0F601F3FC6591F3FE6191683619F0F3
:100CD0006F01162F07C008600460F3FC1591F3FE46
:100CE00011916F01112309F48FC086E290E0612F0A
:100CF00070E099D0892B09F487C0802F00FF03C0D2
:100D0000EE24FF2407C0F301E080F18022E030E010
:100D1000620E731E1E3649F4F5014681578160E06C
:100D200070E0C701202F03DE5EC0133689F481FD19
:100D300002C099249394C50197D097FD60C0E11437
:100D4000F10419F0F70181937F019A94A1F749C04A
:100D50001B3551F4C501692DA7019601B6DE6C0162
:100D6000009709F03EC038C0C5011BDE97FD47C0A3
:100D70001F3641F1103728F4143611F1193621F5D8
:100D800024C0133719F01537F9F41AC0C5016CD017
:100D9000EC0197FD0FC03FD0892B21F0CE01B501AA
:100DA000D1D008C0E114F10419F0F701C1937F011B
:100DB0009A9461F7E114F104A1F0F701108211C0D7
:100DC000006203C0006101C00064C501692DA70174
:100DD000202FFDDD882329F4F5018381807379F4C8
:100DE00013C000FF8394F501F380F601F3FC159125
:100DF000F3FE11916F01112309F019CF05C088206E
:100E000019F42FEF3FEF02C0282D30E0C901CDB714
:100E1000DEB7EEE032C191110DC1803219F0895078
:100E20008550D0F70895FC010590061621F00020AA
:100E3000D9F7C00108953197CF010895FC010590BD
:100E4000615070400110D8F7809590958E0F9F1FCC
:100E50000895FC016150704001900110D8F7809511
:100E600090958E0F9F1F0895CF93DF93EC014B81D8
:100E700040FF1AC046FF0AC04F7B4B838E819F8183
:100E800001969F838E838A81282F2BC042FF13C037
:100E9000E881F9818081282F332727FD309521159E
:100EA000310529F440624B832FEF3FEF1BC0319691
:100EB000F983E88311C0EA85FB85CE0109959C0181
:100EC00097FF0AC09B812F5F3F4F11F080E201C066
:100ED00080E1892B8B83E8CF8E819F8101969F8350
:100EE0008E8330E0C901DF91CF9108950F931F9356
:100EF000CF93DF938C01EB018B8181FF1BC082FFBD
:100F00000DC02E813F818C819D812817390764F4A3
:100F1000E881F9810193F983E88306C0E885F985C2
:100F2000802F0995892B31F48E819F8101969F83B3
:100F30008E8302C00FEF1FEFC801DF91CF911F9189
:100F40000F9108959C01FB01838180FF11C086FDF4
:100F50000FC09FEF2F3F390759F0228380648F7DA8
:100F600083838681978101979783868330E002C0CF
:100F70002FEF3FEFC9010895FA01AA27283051F158
:100F8000203181F1E8946F936E7F6E5F7F4F8F4FBA
:100F90009F4FAF4FB1E03ED0B4E03CD0670F781F19
:100FA000891F9A1FA11D680F791F8A1F911DA11DFE
:100FB0006A0F711D811D911DA11D20D009F4689437
:100FC0003F912AE0269F11243019305D3193DEF6DF
:100FD000CF010895462F4770405D4193B3E00FD095
:100FE000C9F7F6CF462F4F70405D4A3318F0495D80
:100FF00031FD4052419302D0A9F7EACFB4E0A69563
:101000009795879577956795BA95C9F70097610584
:10101000710508959B01AC010A2E069457954795DA
:1010200037952795BA95C9F7620F731F841F951FCF
:10103000A01D08959927882708952F923F924F92D7
:101040005F926F927F928F929F92AF92BF92CF9258
:10105000DF92EF92FF920F931F93CF93DF93CDB761
:10106000DEB7CA1BDB0B0FB6F894DEBF0FBECDBFD9
:1010700009942A88398848885F846E847D848C84AA
:101080009B84AA84B984C884DF80EE80FD800C81B3
:101090001B81AA81B981CE0FD11D0FB6F894DEBF96
:0C10A0000FBECDBFED010895F894FFCF06
:1010AC0048616C6C6F2077656C6C740041542B4EEE
:1010BC00414D45627470616E740041542B50494E21
:1010CC00313333370052656365697665643A205B6A
:1010DC0025735D002564004F4B007264793E20003F
:1010EC0000000000000000000000000000000000F4
:1010FC0000000000000000000000000000000000E4
:10110C0000000000000000000000000000000000D3
:10111C0000000000000000000000000000000000C3
:10112C0000000000000000000000000000000000B3
:10113C00CC33CC33CC33CC3399CC6633553333CC22
:10114C003399CC663355CC3399CC663355AA555468
:10115C0050402010080402018040201008040201B5
:10116C008040201008040201020409122448922431
:0A117C0049922412244892A4D400E2
:00000001FF
